Component: ARM Compiler 5.06 update 6 (build 750) Tool: armlink [4d35ed]

==============================================================================

Section Cross References

    ff.o(i.check_fs) refers to ff.o(i.move_window) for move_window
    ff.o(i.check_fs) refers to ff.o(i.ld_word) for ld_word
    ff.o(i.check_fs) refers to ff.o(i.mem_cmp) for mem_cmp
    ff.o(i.cmp_lfn) refers to ff.o(i.ld_word) for ld_word
    ff.o(i.cmp_lfn) refers to ffunicode.o(i.ff_wtoupper) for ff_wtoupper
    ff.o(i.cmp_lfn) refers to ff.o(.constdata) for LfnOfs
    ff.o(i.create_chain) refers to ff.o(i.get_fat) for get_fat
    ff.o(i.create_chain) refers to ff.o(i.put_fat) for put_fat
    ff.o(i.create_name) refers to ff.o(i.tchar2uni) for tchar2uni
    ff.o(i.create_name) refers to ff.o(i.chk_chr) for chk_chr
    ff.o(i.create_name) refers to ff.o(i.mem_set) for mem_set
    ff.o(i.create_name) refers to ffunicode.o(i.ff_uni2oem) for ff_uni2oem
    ff.o(i.create_name) refers to ff.o(.constdata) for ExCvt
    ff.o(i.create_partition) refers to mmc_stm32f1_spi.o(i.disk_ioctl) for disk_ioctl
    ff.o(i.create_partition) refers to ff.o(i.mem_set) for mem_set
    ff.o(i.create_partition) refers to ff.o(i.st_dword) for st_dword
    ff.o(i.create_partition) refers to ff.o(i.st_word) for st_word
    ff.o(i.create_partition) refers to mmc_stm32f1_spi.o(i.disk_write) for disk_write
==============================================================================

Removing Unused input sections from the image.

    Removing ff.o(i.dir_read), (210 bytes).
    Removing ff.o(i.dir_remove), (96 bytes).
    Removing ff.o(i.f_chdir), (90 bytes).
    Removing ff.o(i.f_chdrive), (32 bytes).
    Removing ff.o(i.f_chmod), (94 bytes).
    Removing ff.o(i.f_closedir), (24 bytes).
    Removing ff.o(i.f_getcwd), (328 bytes).
    Removing ff.o(i.f_getfree), (246 bytes).
    Removing ff.o(i.f_getlabel), (188 bytes).
    Removing ff.o(i.f_lseek), (388 bytes).
    Removing ff.o(i.f_mkdir), (274 bytes).
    Removing ff.o(i.f_opendir), (108 bytes).
    Removing ff.o(i.f_read), (412 bytes).
    Removing ff.o(i.f_readdir), (78 bytes).
    Removing ff.o(i.f_rename), (282 bytes).
    Removing ff.o(i.f_setlabel), (308 bytes).
    Removing ff.o(i.f_stat), (62 bytes).
    Removing ff.o(i.f_truncate), (178 bytes).
==============================================================================

Image Symbol Table

    Local Symbols

    Symbol Name                              Value     Ov Type        Size  Object(Section)

    ../clib/microlib/init/entry.s            0x00000000   Number         0  entry5.o ABSOLUTE
    ../clib/microlib/init/entry.s            0x00000000   Number         0  entry2.o ABSOLUTE
    ../clib/microlib/init/entry.s            0x00000000   Number         0  entry7a.o ABSOLUTE
    ../clib/microlib/init/entry.s            0x00000000   Number         0  entry7b.o ABSOLUTE
    ../clib/microlib/init/entry.s            0x00000000   Number         0  entry8a.o ABSOLUTE
    ../clib/microlib/init/entry.s            0x00000000   Number         0  entry8b.o ABSOLUTE
    ../clib/microlib/init/entry.s            0x00000000   Number         0  entry9a.o ABSOLUTE
    ../clib/microlib/init/entry.s            0x00000000   Number         0  entry.o ABSOLUTE
    ../clib/microlib/init/entry.s            0x00000000   Number         0  entry9b.o ABSOLUTE
    ../clib/microlib/init/entry.s            0x00000000   Number         0  entry10a.o ABSOLUTE
    ../clib/microlib/init/entry.s            0x00000000   Number         0  entry10b.o ABSOLUTE
    ../clib/microlib/init/entry.s            0x00000000   Number         0  entry11a.o ABSOLUTE
    ../clib/microlib/init/entry.s            0x00000000   Number         0  entry11b.o ABSOLUTE
    ../clib/microlib/string/memcpy.c         0x00000000   Number         0  memcpyb.o ABSOLUTE
    ../clib/microlib/string/memcpy.c         0x00000000   Number         0  memcpya.o ABSOLUTE
    ../clib/microlib/string/strcpy.c         0x00000000   Number         0  strcpy.o ABSOLUTE
    ../clib/microlib/string/strlen.c         0x00000000   Number         0  strlen.o ABSOLUTE
    RTE\Device\STM32F429ZITx\startup_stm32f429xx.s 0x00000000   Number         0  startup_stm32f429xx.o ABSOLUTE
    RTE\Device\STM32F429ZITx\system_stm32f4xx.c 0x00000000   Number         0  system_stm32f4xx.o ABSOLUTE
    RTE\\Device\\STM32F429ZITx\\system_stm32f4xx.c 0x00000000   Number         0  system_stm32f4xx.o ABSOLUTE
    dc.s                                     0x00000000   Number         0  dc.o ABSOLUTE
    ff.c                                     0x00000000   Number         0  ff.o ABSOLUTE
    ffsystem.c                               0x00000000   Number         0  ffsystem.o ABSOLUTE
    ffunicode.c                              0x00000000   Number         0  ffunicode.o ABSOLUTE
    handlers.s                               0x00000000   Number         0  handlers.o ABSOLUTE
    init.s                                   0x00000000   Number         0  init.o ABSOLUTE
    main.c                                   0x00000000   Number         0  main.o ABSOLUTE
    main.c                                   0x00000000   Number         0  main.o ABSOLUTE
    mmc_stm32f1_spi.c                        0x00000000   Number         0  mmc_stm32f1_spi.o ABSOLUTE
    mmc_stm32f1_spi.c                        0x00000000   Number         0  mmc_stm32f1_spi.o ABSOLUTE
    rtc_stm32f1.c                            0x00000000   Number         0  rtc_stm32f1.o ABSOLUTE
    rtc_stm32f1.c                            0x00000000   Number         0  rtc_stm32f1.o ABSOLUTE
    uart_stm32f1.c                           0x00000000   Number         0  uart_stm32f1.o ABSOLUTE
    uart_stm32f1.c                           0x00000000   Number         0  uart_stm32f1.o ABSOLUTE
    xprintf.c                                0x00000000   Number         0  xprintf.o ABSOLUTE
    RESET                                    0x08000000   Section      428  startup_stm32f429xx.o(RESET)
    .ARM.Collect$$$$00000000                 0x080001ac   Section        0  entry.o(.ARM.Collect$$$$00000000)
    .ARM.Collect$$$$00000001                 0x080001ac   Section        4  entry2.o(.ARM.Collect$$$$00000001)
    .ARM.Collect$$$$00000004                 0x080001b0   Section        4  entry5.o(.ARM.Collect$$$$00000004)
    .ARM.Collect$$$$00000008                 0x080001b4   Section        0  entry7b.o(.ARM.Collect$$$$00000008)
    .ARM.Collect$$$$0000000A                 0x080001b4   Section        0  entry8b.o(.ARM.Collect$$$$0000000A)
    .ARM.Collect$$$$0000000B                 0x080001b4   Section        8  entry9a.o(.ARM.Collect$$$$0000000B)
    .ARM.Collect$$$$0000000D                 0x080001bc   Section        0  entry10a.o(.ARM.Collect$$$$0000000D)
    .ARM.Collect$$$$0000000F                 0x080001bc   Section        0  entry11a.o(.ARM.Collect$$$$0000000F)
    .ARM.Collect$$$$00002712                 0x080001bc   Section        4  entry2.o(.ARM.Collect$$$$00002712)
    __lit__00000000                          0x080001bc   Data           4  entry2.o(.ARM.Collect$$$$00002712)
    .text                                    0x080001c0   Section       36  startup_stm32f429xx.o(.text)
    $v0                                      0x080001c0   Number         0  startup_stm32f429xx.o(.text)
    .text                                    0x080001e4   Section        0  memcpya.o(.text)
    .text                                    0x08000208   Section       36  init.o(.text)
    i.SysTick_Handler                        0x0800022c   Section        0  main.o(i.SysTick_Handler)
    i.SystemInit                             0x0800026c   Section        0  system_stm32f4xx.o(i.SystemInit)
    i.USART1_IRQHandler                      0x080002d0   Section        0  uart_stm32f1.o(i.USART1_IRQHandler)
    i.__scatterload_copy                     0x08000360   Section       14  handlers.o(i.__scatterload_copy)
    i.__scatterload_null                     0x0800036e   Section        2  handlers.o(i.__scatterload_null)
    i.__scatterload_zeroinit                 0x08000370   Section       14  handlers.o(i.__scatterload_zeroinit)
    i.check_fs                               0x08000380   Section        0  ff.o(i.check_fs)
    check_fs                                 0x08000381   Thumb Code   114  ff.o(i.check_fs)
    i.chk_chr                                0x08000400   Section        0  ff.o(i.chk_chr)
    chk_chr                                  0x08000401   Thumb Code    20  ff.o(i.chk_chr)
    i.clst2sect                              0x08000414   Section        0  ff.o(i.clst2sect)
    clst2sect                                0x08000415   Thumb Code    26  ff.o(i.clst2sect)
    i.cmp_lfn                                0x08000430   Section        0  ff.o(i.cmp_lfn)
    cmp_lfn                                  0x08000431   Thumb Code   148  ff.o(i.cmp_lfn)
    i.create_chain                           0x080004c8   Section        0  ff.o(i.create_chain)
    create_chain                             0x080004c9   Thumb Code   288  ff.o(i.create_chain)
    i.create_name                            0x080005e8   Section        0  ff.o(i.create_name)
    create_name                              0x080005e9   Thumb Code   678  ff.o(i.create_name)
    i.create_partition                       0x080008a8   Section        0  ff.o(i.create_partition)
    create_partition                         0x080008a9   Thumb Code   348  ff.o(i.create_partition)
    i.dbc_1st                                0x08000a04   Section        0  ff.o(i.dbc_1st)
    dbc_1st                                  0x08000a05   Thumb Code    12  ff.o(i.dbc_1st)
    i.dbc_2nd                                0x08000a10   Section        0  ff.o(i.dbc_2nd)
    dbc_2nd                                  0x08000a11   Thumb Code    12  ff.o(i.dbc_2nd)
    i.deselect                               0x08000a1c   Section        0  mmc_stm32f1_spi.o(i.deselect)
    deselect                                 0x08000a1d   Thumb Code    16  mmc_stm32f1_spi.o(i.deselect)
    i.dir_alloc                              0x08000a30   Section        0  ff.o(i.dir_alloc)
    dir_alloc                                0x08000a31   Thumb Code    96  ff.o(i.dir_alloc)
    i.dir_clear                              0x08000a90   Section        0  ff.o(i.dir_clear)
    dir_clear                                0x08000a91   Thumb Code    96  ff.o(i.dir_clear)
    i.dir_find                               0x08000af0   Section        0  ff.o(i.dir_find)
    dir_find                                 0x08000af1   Thumb Code   252  ff.o(i.dir_find)
    i.dir_next                               0x08000bec   Section        0  ff.o(i.dir_next)
    dir_next                                 0x08000bed   Thumb Code   202  ff.o(i.dir_next)
    i.dir_register                           0x08000cb6   Section        0  ff.o(i.dir_register)
    dir_register                             0x08000cb7   Thumb Code   322  ff.o(i.dir_register)
    i.dir_sdi                                0x08000df8   Section        0  ff.o(i.dir_sdi)
    dir_sdi                                  0x08000df9   Thumb Code   154  ff.o(i.dir_sdi)
    i.disk_initialize                        0x08000e94   Section        0  mmc_stm32f1_spi.o(i.disk_initialize)
    i.disk_ioctl                             0x08000ff0   Section        0  mmc_stm32f1_spi.o(i.disk_ioctl)
    i.disk_read                              0x08001218   Section        0  mmc_stm32f1_spi.o(i.disk_read)
    i.disk_status                            0x080012ac   Section        0  mmc_stm32f1_spi.o(i.disk_status)
    i.disk_timerproc                         0x080012c0   Section        0  mmc_stm32f1_spi.o(i.disk_timerproc)
    i.disk_write                             0x08001318   Section        0  mmc_stm32f1_spi.o(i.disk_write)
    i.f_close                                0x080013d0   Section        0  ff.o(i.f_close)
    i.f_mkfs                                 0x080013f4   Section        0  ff.o(i.f_mkfs)
    i.f_mount                                0x08001aa0   Section        0  ff.o(i.f_mount)
    i.f_open                                 0x08001af4   Section        0  ff.o(i.f_open)
    i.f_sync                                 0x08001cda   Section        0  ff.o(i.f_sync)
    i.f_write                                0x08001d7a   Section        0  ff.o(i.f_write)
    i.ff_oem2uni                             0x08001f58   Section        0  ffunicode.o(i.ff_oem2uni)
    i.ff_uni2oem                             0x08001f84   Section        0  ffunicode.o(i.ff_uni2oem)
    i.ff_wtoupper                            0x08001fc4   Section        0  ffunicode.o(i.ff_wtoupper)
    i.find_volume                            0x08002074   Section        0  ff.o(i.find_volume)
    find_volume                              0x08002075   Thumb Code   120  ff.o(i.find_volume)
    i.follow_path                            0x080020ec   Section        0  ff.o(i.follow_path)
    follow_path                              0x080020ed   Thumb Code   202  ff.o(i.follow_path)
    i.gen_numname                            0x080021b8   Section        0  ff.o(i.gen_numname)
    gen_numname                              0x080021b9   Thumb Code   198  ff.o(i.gen_numname)
    i.get_fat                                0x08002284   Section        0  ff.o(i.get_fat)
    get_fat                                  0x08002285   Thumb Code   224  ff.o(i.get_fat)
    i.get_fattime                            0x08002364   Section        0  main.o(i.get_fattime)
    i.get_ldnumber                           0x0800239c   Section        0  ff.o(i.get_ldnumber)
    get_ldnumber                             0x0800239d   Thumb Code    80  ff.o(i.get_ldnumber)
    i.init_spi                               0x080023f0   Section        0  mmc_stm32f1_spi.o(i.init_spi)
    i.ld_clust                               0x0800254c   Section        0  ff.o(i.ld_clust)
    ld_clust                                 0x0800254d   Thumb Code    38  ff.o(i.ld_clust)
    i.ld_dword                               0x08002572   Section        0  ff.o(i.ld_dword)
    ld_dword                                 0x08002573   Thumb Code    24  ff.o(i.ld_dword)
    i.ld_word                                0x0800258a   Section        0  ff.o(i.ld_word)
    ld_word                                  0x0800258b   Thumb Code    12  ff.o(i.ld_word)
    i.main                                   0x08002598   Section        0  main.o(i.main)
    i.mem_cmp                                0x08002834   Section        0  ff.o(i.mem_cmp)
    mem_cmp                                  0x08002835   Thumb Code    36  ff.o(i.mem_cmp)
    i.mem_cpy                                0x08002858   Section        0  ff.o(i.mem_cpy)
    mem_cpy                                  0x08002859   Thumb Code    26  ff.o(i.mem_cpy)
    i.mem_set                                0x08002872   Section        0  ff.o(i.mem_set)
    mem_set                                  0x08002873   Thumb Code    18  ff.o(i.mem_set)
    i.mount_volume                           0x08002884   Section        0  ff.o(i.mount_volume)
    mount_volume                             0x08002885   Thumb Code   666  ff.o(i.mount_volume)
    i.move_window                            0x08002b38   Section        0  ff.o(i.move_window)
    move_window                              0x08002b39   Thumb Code    52  ff.o(i.move_window)
    i.put_fat                                0x08002b6c   Section        0  ff.o(i.put_fat)
    put_fat                                  0x08002b6d   Thumb Code   312  ff.o(i.put_fat)
    i.put_lfn                                0x08002ca4   Section        0  ff.o(i.put_lfn)
    put_lfn                                  0x08002ca5   Thumb Code   124  ff.o(i.put_lfn)
    i.rcvr_datablock                         0x08002d24   Section        0  mmc_stm32f1_spi.o(i.rcvr_datablock)
    rcvr_datablock                           0x08002d25   Thumb Code    66  mmc_stm32f1_spi.o(i.rcvr_datablock)
    i.rcvr_spi_multi                         0x08002d6c   Section        0  mmc_stm32f1_spi.o(i.rcvr_spi_multi)
    rcvr_spi_multi                           0x08002d6d   Thumb Code   128  mmc_stm32f1_spi.o(i.rcvr_spi_multi)
    i.remove_chain                           0x08002df0   Section        0  ff.o(i.remove_chain)
    remove_chain                             0x08002df1   Thumb Code   154  ff.o(i.remove_chain)
    i.select                                 0x08002e8c   Section        0  mmc_stm32f1_spi.o(i.select)
    select                                   0x08002e8d   Thumb Code    38  mmc_stm32f1_spi.o(i.select)
    i.send_cmd                               0x08002eb8   Section        0  mmc_stm32f1_spi.o(i.send_cmd)
    send_cmd                                 0x08002eb9   Thumb Code   150  mmc_stm32f1_spi.o(i.send_cmd)
    i.st_clust                               0x08002f4e   Section        0  ff.o(i.st_clust)
    st_clust                                 0x08002f4f   Thumb Code    36  ff.o(i.st_clust)
    i.st_dword                               0x08002f72   Section        0  ff.o(i.st_dword)
    st_dword                                 0x08002f73   Thumb Code    24  ff.o(i.st_dword)
    i.st_word                                0x08002f8a   Section        0  ff.o(i.st_word)
    st_word                                  0x08002f8b   Thumb Code    12  ff.o(i.st_word)
    i.sum_sfn                                0x08002f96   Section        0  ff.o(i.sum_sfn)
    sum_sfn                                  0x08002f97   Thumb Code    32  ff.o(i.sum_sfn)
    i.sync_fs                                0x08002fb8   Section        0  ff.o(i.sync_fs)
    sync_fs                                  0x08002fb9   Thumb Code   134  ff.o(i.sync_fs)
    i.sync_window                            0x08003048   Section        0  ff.o(i.sync_window)
    sync_window                              0x08003049   Thumb Code    74  ff.o(i.sync_window)
    i.tchar2uni                              0x08003092   Section        0  ff.o(i.tchar2uni)
    tchar2uni                                0x08003093   Thumb Code    76  ff.o(i.tchar2uni)
    i.uart1_getc                             0x080030e0   Section        0  uart_stm32f1.o(i.uart1_getc)
    i.uart1_init                             0x08003120   Section        0  uart_stm32f1.o(i.uart1_init)
    i.uart1_putc                             0x08003228   Section        0  uart_stm32f1.o(i.uart1_putc)
    i.validate                               0x08003278   Section        0  ff.o(i.validate)
    validate                                 0x08003279   Thumb Code    60  ff.o(i.validate)
    i.wait_ready                             0x080032b4   Section        0  mmc_stm32f1_spi.o(i.wait_ready)
    wait_ready                               0x080032b5   Thumb Code    64  mmc_stm32f1_spi.o(i.wait_ready)
    i.xchg_spi                               0x080032f8   Section        0  mmc_stm32f1_spi.o(i.xchg_spi)
    xchg_spi                                 0x080032f9   Thumb Code    28  mmc_stm32f1_spi.o(i.xchg_spi)
    i.xmit_datablock                         0x08003318   Section        0  mmc_stm32f1_spi.o(i.xmit_datablock)
    xmit_datablock                           0x08003319   Thumb Code    76  mmc_stm32f1_spi.o(i.xmit_datablock)
    i.xmit_spi_multi                         0x08003364   Section        0  mmc_stm32f1_spi.o(i.xmit_spi_multi)
    xmit_spi_multi                           0x08003365   Thumb Code   122  mmc_stm32f1_spi.o(i.xmit_spi_multi)
    i.xprintf                                0x080033e4   Section        0  xprintf.o(i.xprintf)
    i.xputc                                  0x08003400   Section        0  xprintf.o(i.xputc)
    i.xputs                                  0x08003440   Section        0  xprintf.o(i.xputs)
    i.xvprintf                               0x08003456   Section        0  xprintf.o(i.xvprintf)
    xvprintf                                 0x08003457   Thumb Code   530  xprintf.o(i.xvprintf)
    .constdata                               0x08003668   Section      204  ff.o(.constdata)
    LfnOfs                                   0x08003668   Data          13  ff.o(.constdata)
    ExCvt                                    0x08003675   Data         128  ff.o(.constdata)
    badchr                                   0x080036f5   Data          18  ff.o(.constdata)
    cst                                      0x08003708   Data          14  ff.o(.constdata)
    cst32                                    0x08003716   Data          14  ff.o(.constdata)
    defopt                                   0x08003724   Data          16  ff.o(.constdata)
    .constdata                               0x08003734   Section      942  ffunicode.o(.constdata)
    uc437                                    0x08003734   Data         256  ffunicode.o(.constdata)
    cvt1                                     0x08003834   Data         498  ffunicode.o(.constdata)
    cvt2                                     0x08003a26   Data         188  ffunicode.o(.constdata)
    .conststring                             0x08003ae4   Section       33  main.o(.conststring)
    .data                                    0x20000000   Section        3  ff.o(.data)
    Fsid                                     0x20000000   Data           2  ff.o(.data)
    CurrVol                                  0x20000002   Data           1  ff.o(.data)
    .data                                    0x20000004   Section       13  mmc_stm32f1_spi.o(.data)
    Stat                                     0x20000004   Data           1  mmc_stm32f1_spi.o(.data)
    Timer1                                   0x20000008   Data           4  mmc_stm32f1_spi.o(.data)
    Timer2                                   0x2000000c   Data           4  mmc_stm32f1_spi.o(.data)
    CardType                                 0x20000010   Data           1  mmc_stm32f1_spi.o(.data)
    .data                                    0x20000014   Section       12  xprintf.o(.data)
    outptr                                   0x20000018   Data           4  xprintf.o(.data)
    .data                                    0x20000020   Section       36  main.o(.data)
    led                                      0x2000002c   Data           2  main.o(.data)
    ft                                       0x20000030   Data          20  main.o(.data)
    .bss                                     0x20000044   Section      274  ff.o(.bss)
    FatFs                                    0x20000044   Data          16  ff.o(.bss)
    LfnBuf                                   0x20000054   Data         258  ff.o(.bss)
    .bss                                     0x20000156   Section      268  uart_stm32f1.o(.bss)
    Fifo1                                    0x20000156   Data         268  uart_stm32f1.o(.bss)
    .bss                                     0x20000264   Section     7304  main.o(.bss)
    STACK                                    0x20001ef0   Section     1024  startup_stm32f429xx.o(STACK)

    Global Symbols

    Symbol Name                              Value     Ov Type        Size  Object(Section)

    BuildAttributes$$THM_ISAv4$E$P$D$K$B$S$7EM$VFPi3$EXTD16$VFPS$VFMA$PE$A:L22UL41UL21$X:L11$S22US41US21$IEEE1$IW$USESV6$~STKCKD$USESV7$~SHL$OSPACE$EBA8$MICROLIB$REQ8$PRES8$EABIv2 0x00000000   Number         0  anon$$obj.o ABSOLUTE
    __ARM_use_no_argv                        0x00000000   Number         0  main.o ABSOLUTE
    __cpp_initialize__aeabi_                  - Undefined Weak Reference
    __cxa_finalize                            - Undefined Weak Reference
    __decompress                              - Undefined Weak Reference
    _clock_init                               - Undefined Weak Reference
    _microlib_exit                            - Undefined Weak Reference
    __Vectors_Size                           0x000001ac   Number         0  startup_stm32f429xx.o ABSOLUTE
    __Vectors                                0x08000000   Data           4  startup_stm32f429xx.o(RESET)
    __Vectors_End                            0x080001ac   Data           0  startup_stm32f429xx.o(RESET)
    __main                                   0x080001ad   Thumb Code     0  entry.o(.ARM.Collect$$$$00000000)
    _main_stk                                0x080001ad   Thumb Code     0  entry2.o(.ARM.Collect$$$$00000001)
    _main_scatterload                        0x080001b1   Thumb Code     0  entry5.o(.ARM.Collect$$$$00000004)
    __main_after_scatterload                 0x080001b5   Thumb Code     0  entry5.o(.ARM.Collect$$$$00000004)
    _main_clock                              0x080001b5   Thumb Code     0  entry7b.o(.ARM.Collect$$$$00000008)
    _main_cpp_init                           0x080001b5   Thumb Code     0  entry8b.o(.ARM.Collect$$$$0000000A)
    _main_init                               0x080001b5   Thumb Code     0  entry9a.o(.ARM.Collect$$$$0000000B)
    __rt_final_cpp                           0x080001bd   Thumb Code     0  entry10a.o(.ARM.Collect$$$$0000000D)
    __rt_final_exit                          0x080001bd   Thumb Code     0  entry11a.o(.ARM.Collect$$$$0000000F)
    Reset_Handler                            0x080001c1   Thumb Code     8  startup_stm32f429xx.o(.text)
    NMI_Handler                              0x080001c9   Thumb Code     2  startup_stm32f429xx.o(.text)
    HardFault_Handler                        0x080001cb   Thumb Code     2  startup_stm32f429xx.o(.text)
    MemManage_Handler                        0x080001cd   Thumb Code     2  startup_stm32f429xx.o(.text)
    BusFault_Handler                         0x080001cf   Thumb Code     2  startup_stm32f429xx.o(.text)
    UsageFault_Handler                       0x080001d1   Thumb Code     2  startup_stm32f429xx.o(.text)
    SVC_Handler                              0x080001d3   Thumb Code     2  startup_stm32f429xx.o(.text)
    DebugMon_Handler                         0x080001d5   Thumb Code     2  startup_stm32f429xx.o(.text)
    PendSV_Handler                           0x080001d7   Thumb Code     2  startup_stm32f429xx.o(.text)
    ADC_IRQHandler                           0x080001db   Thumb Code     0  startup_stm32f429xx.o(.text)
    CAN1_RX0_IRQHandler                      0x080001db   Thumb Code     0  startup_stm32f429xx.o(.text)
    CAN1_RX1_IRQHandler                      0x080001db   Thumb Code     0  startup_stm32f429xx.o(.text)
    CAN1_SCE_IRQHandler                      0x080001db   Thumb Code     0  startup_stm32f429xx.o(.text)
    CAN1_TX_IRQHandler                       0x080001db   Thumb Code     0  startup_stm32f429xx.o(.text)
    CAN2_RX0_IRQHandler                      0x080001db   Thumb Code     0  startup_stm32f429xx.o(.text)
    CAN2_RX1_IRQHandler                      0x080001db   Thumb Code     0  startup_stm32f429xx.o(.text)
    CAN2_SCE_IRQHandler                      0x080001db   Thumb Code     0  startup_stm32f429xx.o(.text)
    CAN2_TX_IRQHandler                       0x080001db   Thumb Code     0  startup_stm32f429xx.o(.text)
    DCMI_IRQHandler                          0x080001db   Thumb Code     0  startup_stm32f429xx.o(.text)
    DMA1_Stream0_IRQHandler                  0x080001db   Thumb Code     0  startup_stm32f429xx.o(.text)
    DMA1_Stream1_IRQHandler                  0x080001db   Thumb Code     0  startup_stm32f429xx.o(.text)
    DMA1_Stream2_IRQHandler                  0x080001db   Thumb Code     0  startup_stm32f429xx.o(.text)
    DMA1_Stream3_IRQHandler                  0x080001db   Thumb Code     0  startup_stm32f429xx.o(.text)
    DMA1_Stream4_IRQHandler                  0x080001db   Thumb Code     0  startup_stm32f429xx.o(.text)
    DMA1_Stream5_IRQHandler                  0x080001db   Thumb Code     0  startup_stm32f429xx.o(.text)
    DMA1_Stream6_IRQHandler                  0x080001db   Thumb Code     0  startup_stm32f429xx.o(.text)
    DMA1_Stream7_IRQHandler                  0x080001db   Thumb Code     0  startup_stm32f429xx.o(.text)
    DMA2D_IRQHandler                         0x080001db   Thumb Code     0  startup_stm32f429xx.o(.text)
    DMA2_Stream0_IRQHandler                  0x080001db   Thumb Code     0  startup_stm32f429xx.o(.text)
    DMA2_Stream1_IRQHandler                  0x080001db   Thumb Code     0  startup_stm32f429xx.o(.text)
    DMA2_Stream2_IRQHandler                  0x080001db   Thumb Code     0  startup_stm32f429xx.o(.text)
    DMA2_Stream3_IRQHandler                  0x080001db   Thumb Code     0  startup_stm32f429xx.o(.text)
    DMA2_Stream4_IRQHandler                  0x080001db   Thumb Code     0  startup_stm32f429xx.o(.text)
    DMA2_Stream5_IRQHandler                  0x080001db   Thumb Code     0  startup_stm32f429xx.o(.text)
    DMA2_Stream6_IRQHandler                  0x080001db   Thumb Code     0  startup_stm32f429xx.o(.text)
    DMA2_Stream7_IRQHandler                  0x080001db   Thumb Code     0  startup_stm32f429xx.o(.text)
    ETH_IRQHandler                           0x080001db   Thumb Code     0  startup_stm32f429xx.o(.text)
    ETH_WKUP_IRQHandler                      0x080001db   Thumb Code     0  startup_stm32f429xx.o(.text)
    EXTI0_IRQHandler                         0x080001db   Thumb Code     0  startup_stm32f429xx.o(.text)
    EXTI15_10_IRQHandler                     0x080001db   Thumb Code     0  startup_stm32f429xx.o(.text)
    EXTI1_IRQHandler                         0x080001db   Thumb Code     0  startup_stm32f429xx.o(.text)
    EXTI2_IRQHandler                         0x080001db   Thumb Code     0  startup_stm32f429xx.o(.text)
    EXTI3_IRQHandler                         0x080001db   Thumb Code     0  startup_stm32f429xx.o(.text)
    EXTI4_IRQHandler                         0x080001db   Thumb Code     0  startup_stm32f429xx.o(.text)
    EXTI9_5_IRQHandler                       0x080001db   Thumb Code     0  startup_stm32f429xx.o(.text)
    FLASH_IRQHandler                         0x080001db   Thumb Code     0  startup_stm32f429xx.o(.text)
    FMC_IRQHandler                           0x080001db   Thumb Code     0  startup_stm32f429xx.o(.text)
    FPU_IRQHandler                           0x080001db   Thumb Code     0  startup_stm32f429xx.o(.text)
    HASH_RNG_IRQHandler                      0x080001db   Thumb Code     0  startup_stm32f429xx.o(.text)
    I2C1_ER_IRQHandler                       0x080001db   Thumb Code     0  startup_stm32f429xx.o(.text)
    I2C1_EV_IRQHandler                       0x080001db   Thumb Code     0  startup_stm32f429xx.o(.text)
    I2C2_ER_IRQHandler                       0x080001db   Thumb Code     0  startup_stm32f429xx.o(.text)
    I2C2_EV_IRQHandler                       0x080001db   Thumb Code     0  startup_stm32f429xx.o(.text)
    I2C3_ER_IRQHandler                       0x080001db   Thumb Code     0  startup_stm32f429xx.o(.text)
    I2C3_EV_IRQHandler                       0x080001db   Thumb Code     0  startup_stm32f429xx.o(.text)
    LTDC_ER_IRQHandler                       0x080001db   Thumb Code     0  startup_stm32f429xx.o(.text)
    LTDC_IRQHandler                          0x080001db   Thumb Code     0  startup_stm32f429xx.o(.text)
    OTG_FS_IRQHandler                        0x080001db   Thumb Code     0  startup_stm32f429xx.o(.text)
    OTG_FS_WKUP_IRQHandler                   0x080001db   Thumb Code     0  startup_stm32f429xx.o(.text)
    OTG_HS_EP1_IN_IRQHandler                 0x080001db   Thumb Code     0  startup_stm32f429xx.o(.text)
    OTG_HS_EP1_OUT_IRQHandler                0x080001db   Thumb Code     0  startup_stm32f429xx.o(.text)
    OTG_HS_IRQHandler                        0x080001db   Thumb Code     0  startup_stm32f429xx.o(.text)
    OTG_HS_WKUP_IRQHandler                   0x080001db   Thumb Code     0  startup_stm32f429xx.o(.text)
    PVD_IRQHandler                           0x080001db   Thumb Code     0  startup_stm32f429xx.o(.text)
    RCC_IRQHandler                           0x080001db   Thumb Code     0  startup_stm32f429xx.o(.text)
    RTC_Alarm_IRQHandler                     0x080001db   Thumb Code     0  startup_stm32f429xx.o(.text)
    RTC_WKUP_IRQHandler                      0x080001db   Thumb Code     0  startup_stm32f429xx.o(.text)
    SAI1_IRQHandler                          0x080001db   Thumb Code     0  startup_stm32f429xx.o(.text)
    SDIO_IRQHandler                          0x080001db   Thumb Code     0  startup_stm32f429xx.o(.text)
    SPI1_IRQHandler                          0x080001db   Thumb Code     0  startup_stm32f429xx.o(.text)
    SPI2_IRQHandler                          0x080001db   Thumb Code     0  startup_stm32f429xx.o(.text)
    SPI3_IRQHandler                          0x080001db   Thumb Code     0  startup_stm32f429xx.o(.text)
    SPI4_IRQHandler                          0x080001db   Thumb Code     0  startup_stm32f429xx.o(.text)
    SPI5_IRQHandler                          0x080001db   Thumb Code     0  startup_stm32f429xx.o(.text)
    SPI6_IRQHandler                          0x080001db   Thumb Code     0  startup_stm32f429xx.o(.text)
    TAMP_STAMP_IRQHandler                    0x080001db   Thumb Code     0  startup_stm32f429xx.o(.text)
    TIM1_BRK_TIM9_IRQHandler                 0x080001db   Thumb Code     0  startup_stm32f429xx.o(.text)
    TIM1_CC_IRQHandler                       0x080001db   Thumb Code     0  startup_stm32f429xx.o(.text)
    TIM1_TRG_COM_TIM11_IRQHandler            0x080001db   Thumb Code     0  startup_stm32f429xx.o(.text)
    TIM1_UP_TIM10_IRQHandler                 0x080001db   Thumb Code     0  startup_stm32f429xx.o(.text)
    TIM2_IRQHandler                          0x080001db   Thumb Code     0  startup_stm32f429xx.o(.text)
    TIM3_IRQHandler                          0x080001db   Thumb Code     0  startup_stm32f429xx.o(.text)
    TIM4_IRQHandler                          0x080001db   Thumb Code     0  startup_stm32f429xx.o(.text)
    TIM5_IRQHandler                          0x080001db   Thumb Code     0  startup_stm32f429xx.o(.text)
    TIM6_DAC_IRQHandler                      0x080001db   Thumb Code     0  startup_stm32f429xx.o(.text)
    TIM7_IRQHandler                          0x080001db   Thumb Code     0  startup_stm32f429xx.o(.text)
    TIM8_BRK_TIM12_IRQHandler                0x080001db   Thumb Code     0  startup_stm32f429xx.o(.text)
    TIM8_CC_IRQHandler                       0x080001db   Thumb Code     0  startup_stm32f429xx.o(.text)
    TIM8_TRG_COM_TIM14_IRQHandler            0x080001db   Thumb Code     0  startup_stm32f429xx.o(.text)
    TIM8_UP_TIM13_IRQHandler                 0x080001db   Thumb Code     0  startup_stm32f429xx.o(.text)
    UART4_IRQHandler                         0x080001db   Thumb Code     0  startup_stm32f429xx.o(.text)
    UART5_IRQHandler                         0x080001db   Thumb Code     0  startup_stm32f429xx.o(.text)
    UART7_IRQHandler                         0x080001db   Thumb Code     0  startup_stm32f429xx.o(.text)
    UART8_IRQHandler                         0x080001db   Thumb Code     0  startup_stm32f429xx.o(.text)
    USART2_IRQHandler                        0x080001db   Thumb Code     0  startup_stm32f429xx.o(.text)
    USART3_IRQHandler                        0x080001db   Thumb Code     0  startup_stm32f429xx.o(.text)
    USART6_IRQHandler                        0x080001db   Thumb Code     0  startup_stm32f429xx.o(.text)
    WWDG_IRQHandler                          0x080001db   Thumb Code     0  startup_stm32f429xx.o(.text)
    __aeabi_memcpy                           0x080001e5   Thumb Code    36  memcpya.o(.text)
    __aeabi_memcpy4                          0x080001e5   Thumb Code     0  memcpya.o(.text)
    __aeabi_memcpy8                          0x080001e5   Thumb Code     0  memcpya.o(.text)
    __scatterload                            0x08000209   Thumb Code    28  init.o(.text)
    __scatterload_rt2                        0x08000209   Thumb Code     0  init.o(.text)
    SysTick_Handler                          0x0800022d   Thumb Code    52  main.o(i.SysTick_Handler)
    SystemInit                               0x0800026d   Thumb Code    82  system_stm32f4xx.o(i.SystemInit)
    USART1_IRQHandler                        0x080002d1   Thumb Code   136  uart_stm32f1.o(i.USART1_IRQHandler)
    __scatterload_copy                       0x08000361   Thumb Code    14  handlers.o(i.__scatterload_copy)
    __scatterload_null                       0x0800036f   Thumb Code     2  handlers.o(i.__scatterload_null)
    __scatterload_zeroinit                   0x08000371   Thumb Code    14  handlers.o(i.__scatterload_zeroinit)
    disk_initialize                          0x08000e95   Thumb Code   330  mmc_stm32f1_spi.o(i.disk_initialize)
    disk_ioctl                               0x08000ff1   Thumb Code   542  mmc_stm32f1_spi.o(i.disk_ioctl)
    disk_read                                0x08001219   Thumb Code   140  mmc_stm32f1_spi.o(i.disk_read)
    disk_status                              0x080012ad   Thumb Code    14  mmc_stm32f1_spi.o(i.disk_status)
    disk_timerproc                           0x080012c1   Thumb Code    70  mmc_stm32f1_spi.o(i.disk_timerproc)
    disk_write                               0x08001319   Thumb Code   174  mmc_stm32f1_spi.o(i.disk_write)
    f_close                                  0x080013d1   Thumb Code    34  ff.o(i.f_close)
    f_mkfs                                   0x080013f5   Thumb Code  1654  ff.o(i.f_mkfs)
    f_mount                                  0x08001aa1   Thumb Code    80  ff.o(i.f_mount)
    f_open                                   0x08001af5   Thumb Code   486  ff.o(i.f_open)
    f_sync                                   0x08001cdb   Thumb Code   160  ff.o(i.f_sync)
    f_write                                  0x08001d7b   Thumb Code   478  ff.o(i.f_write)
    ff_oem2uni                               0x08001f59   Thumb Code    38  ffunicode.o(i.ff_oem2uni)
    ff_uni2oem                               0x08001f85   Thumb Code    58  ffunicode.o(i.ff_uni2oem)
    ff_wtoupper                              0x08001fc5   Thumb Code   166  ffunicode.o(i.ff_wtoupper)
    get_fattime                              0x08002365   Thumb Code    54  main.o(i.get_fattime)
    init_spi                                 0x080023f1   Thumb Code   330  mmc_stm32f1_spi.o(i.init_spi)
    main                                     0x08002599   Thumb Code   386  main.o(i.main)
    uart1_getc                               0x080030e1   Thumb Code    60  uart_stm32f1.o(i.uart1_getc)
    uart1_init                               0x08003121   Thumb Code   242  uart_stm32f1.o(i.uart1_init)
    uart1_putc                               0x08003229   Thumb Code    72  uart_stm32f1.o(i.uart1_putc)
    xprintf                                  0x080033e5   Thumb Code    26  xprintf.o(i.xprintf)
    xputc                                    0x08003401   Thumb Code    56  xprintf.o(i.xputc)
    xputs                                    0x08003441   Thumb Code    22  xprintf.o(i.xputs)
    Region$$Table$$Base                      0x08003b08   Number         0  anon$$obj.o(Region$$Table)
    Region$$Table$$Limit                     0x08003b28   Number         0  anon$$obj.o(Region$$Table)
    xfunc_out                                0x20000014   Data           4  xprintf.o(.data)
    xfunc_in                                 0x2000001c   Data           4  xprintf.o(.data)
    AccSize                                  0x20000020   Data           4  main.o(.data)
    AccFiles                                 0x20000024   Data           2  main.o(.data)
    AccDirs                                  0x20000026   Data           2  main.o(.data)
    Timer                                    0x20000028   Data           4  main.o(.data)
    Finfo                                    0x20000264   Data         152  main.o(.bss)
    Line                                     0x200002fc   Data         256  main.o(.bss)
    Buff                                     0x200003fc   Data        4096  main.o(.bss)
    FatFs                                    0x200013fc   Data        1136  main.o(.bss)
    File                                     0x2000186c   Data        1104  main.o(.bss)
    Dir                                      0x20001cbc   Data          48  main.o(.bss)
    work                                     0x20001cec   Data         512  main.o(.bss)
    __initial_sp                             0x200022f0   Data           0  startup_stm32f429xx.o(STACK)



==============================================================================

Memory Map of the image

  Image Entry point : 0x080001ad

  Load Region LR_IROM1 (Base: 0x08000000, Size: 0x00003b6c, Max: 0x00200000, ABSOLUTE)

    Execution Region ER_IROM1 (Exec base: 0x08000000, Load base: 0x08000000, Size: 0x00003b28, Max: 0x00200000, ABSOLUTE)

    Exec Addr    Load Addr    Size         Type   Attr      Idx    E Section Name        Object

    0x08000000   0x08000000   0x000001ac   Data   RO          776    RESET               startup_stm32f429xx.o
    0x080001ac   0x080001ac   0x00000000   Code   RO          818  * .ARM.Collect$$$$00000000  mc_w.l(entry.o)
    0x080001ac   0x080001ac   0x00000004   Code   RO          829    .ARM.Collect$$$$00000001  mc_w.l(entry2.o)
    0x080001b0   0x080001b0   0x00000004   Code   RO          832    .ARM.Collect$$$$00000004  mc_w.l(entry5.o)
    0x080001b4   0x080001b4   0x00000000   Code   RO          834    .ARM.Collect$$$$00000008  mc_w.l(entry7b.o)
    0x080001b4   0x080001b4   0x00000000   Code   RO          836    .ARM.Collect$$$$0000000A  mc_w.l(entry8b.o)
    0x080001b4   0x080001b4   0x00000008   Code   RO          837    .ARM.Collect$$$$0000000B  mc_w.l(entry9a.o)
    0x080001bc   0x080001bc   0x00000000   Code   RO          839    .ARM.Collect$$$$0000000D  mc_w.l(entry10a.o)
    0x080001bc   0x080001bc   0x00000000   Code   RO          841    .ARM.Collect$$$$0000000F  mc_w.l(entry11a.o)
    0x080001bc   0x080001bc   0x00000004   Code   RO          830    .ARM.Collect$$$$00002712  mc_w.l(entry2.o)
    0x080001c0   0x080001c0   0x00000024   Code   RO          777    .text               startup_stm32f429xx.o
    0x080001e4   0x080001e4   0x00000024   Code   RO          821    .text               mc_w.l(memcpya.o)
    0x08000208   0x08000208   0x00000024   Code   RO          843    .text               mc_w.l(init.o)
    0x0800022c   0x0800022c   0x00000040   Code   RO          718    i.SysTick_Handler   main.o
    0x0800026c   0x0800026c   0x00000064   Code   RO          785    i.SystemInit        system_stm32f4xx.o
    0x080002d0   0x080002d0   0x00000090   Code   RO          585    i.USART1_IRQHandler  uart_stm32f1.o
    0x08000360   0x08000360   0x0000000e   Code   RO          847    i.__scatterload_copy  mc_w.l(handlers.o)
    0x0800036e   0x0800036e   0x00000002   Code   RO          848    i.__scatterload_null  mc_w.l(handlers.o)
    0x08000370   0x08000370   0x0000000e   Code   RO          849    i.__scatterload_zeroinit  mc_w.l(handlers.o)
    0x0800037e   0x0800037e   0x00000002   PAD
    0x08000380   0x08000380   0x00000080   Code   RO            1    i.check_fs          ff.o
    0x08000400   0x08000400   0x00000014   Code   RO            2    i.chk_chr           ff.o
    0x08000414   0x08000414   0x0000001a   Code   RO            3    i.clst2sect         ff.o
    0x0800042e   0x0800042e   0x00000002   PAD
    0x08000430   0x08000430   0x00000098   Code   RO            4    i.cmp_lfn           ff.o
    0x080004c8   0x080004c8   0x00000120   Code   RO            5    i.create_chain      ff.o
    0x080005e8   0x080005e8   0x000002c0   Code   RO            6    i.create_name       ff.o
    0x080008a8   0x080008a8   0x0000015c   Code   RO            7    i.create_partition  ff.o
    0x08000a04   0x08000a04   0x0000000c   Code   RO            8    i.dbc_1st           ff.o
    0x08000a10   0x08000a10   0x0000000c   Code   RO            9    i.dbc_2nd           ff.o
    0x08000a1c   0x08000a1c   0x00000014   Code   RO          424    i.deselect          mmc_stm32f1_spi.o
    0x08000a30   0x08000a30   0x00000060   Code   RO           10    i.dir_alloc         ff.o
    0x08000a90   0x08000a90   0x00000060   Code   RO           11    i.dir_clear         ff.o
    0x08000af0   0x08000af0   0x000000fc   Code   RO           12    i.dir_find          ff.o
    0x08000bec   0x08000bec   0x000000ca   Code   RO           13    i.dir_next          ff.o
    0x08000cb6   0x08000cb6   0x00000142   Code   RO           15    i.dir_register      ff.o
    0x08000df8   0x08000df8   0x0000009a   Code   RO           17    i.dir_sdi           ff.o
    0x08000e92   0x08000e92   0x00000002   PAD
    0x08000e94   0x08000e94   0x0000015c   Code   RO          425    i.disk_initialize   mmc_stm32f1_spi.o
    0x08000ff0   0x08000ff0   0x00000228   Code   RO          426    i.disk_ioctl        mmc_stm32f1_spi.o
    0x08001218   0x08001218   0x00000094   Code   RO          427    i.disk_read         mmc_stm32f1_spi.o
    0x080012ac   0x080012ac   0x00000014   Code   RO          428    i.disk_status       mmc_stm32f1_spi.o
    0x080012c0   0x080012c0   0x00000058   Code   RO          429    i.disk_timerproc    mmc_stm32f1_spi.o
    0x08001318   0x08001318   0x000000b8   Code   RO          430    i.disk_write        mmc_stm32f1_spi.o
    0x080013d0   0x080013d0   0x00000022   Code   RO           21    i.f_close           ff.o
    0x080013f2   0x080013f2   0x00000002   PAD
    0x080013f4   0x080013f4   0x000006ac   Code   RO           28    i.f_mkfs            ff.o
    0x08001aa0   0x08001aa0   0x00000054   Code   RO           29    i.f_mount           ff.o
    0x08001af4   0x08001af4   0x000001e6   Code   RO           30    i.f_open            ff.o
    0x08001cda   0x08001cda   0x000000a0   Code   RO           37    i.f_sync            ff.o
    0x08001d7a   0x08001d7a   0x000001de   Code   RO           41    i.f_write           ff.o
    0x08001f58   0x08001f58   0x0000002c   Code   RO          395    i.ff_oem2uni        ffunicode.o
    0x08001f84   0x08001f84   0x00000040   Code   RO          396    i.ff_uni2oem        ffunicode.o
    0x08001fc4   0x08001fc4   0x000000b0   Code   RO          397    i.ff_wtoupper       ffunicode.o
    0x08002074   0x08002074   0x00000078   Code   RO           42    i.find_volume       ff.o
    0x080020ec   0x080020ec   0x000000ca   Code   RO           43    i.follow_path       ff.o
    0x080021b6   0x080021b6   0x00000002   PAD
    0x080021b8   0x080021b8   0x000000cc   Code   RO           44    i.gen_numname       ff.o
    0x08002284   0x08002284   0x000000e0   Code   RO           45    i.get_fat           ff.o
    0x08002364   0x08002364   0x00000036   Code   RO          719    i.get_fattime       main.o
    0x0800239a   0x0800239a   0x00000002   PAD
    0x0800239c   0x0800239c   0x00000054   Code   RO           47    i.get_ldnumber      ff.o
    0x080023f0   0x080023f0   0x0000015c   Code   RO          431    i.init_spi          mmc_stm32f1_spi.o
    0x0800254c   0x0800254c   0x00000026   Code   RO           48    i.ld_clust          ff.o
    0x08002572   0x08002572   0x00000018   Code   RO           49    i.ld_dword          ff.o
    0x0800258a   0x0800258a   0x0000000c   Code   RO           50    i.ld_word           ff.o
    0x08002596   0x08002596   0x00000002   PAD
    0x08002598   0x08002598   0x0000029c   Code   RO          720    i.main              main.o
    0x08002834   0x08002834   0x00000024   Code   RO           51    i.mem_cmp           ff.o
    0x08002858   0x08002858   0x0000001a   Code   RO           52    i.mem_cpy           ff.o
    0x08002872   0x08002872   0x00000012   Code   RO           53    i.mem_set           ff.o
    0x08002884   0x08002884   0x000002b4   Code   RO           54    i.mount_volume      ff.o
    0x08002b38   0x08002b38   0x00000034   Code   RO           55    i.move_window       ff.o
    0x08002b6c   0x08002b6c   0x00000138   Code   RO           57    i.put_fat           ff.o
    0x08002ca4   0x08002ca4   0x00000080   Code   RO           58    i.put_lfn           ff.o
    0x08002d24   0x08002d24   0x00000048   Code   RO          432    i.rcvr_datablock    mmc_stm32f1_spi.o
    0x08002d6c   0x08002d6c   0x00000084   Code   RO          433    i.rcvr_spi_multi    mmc_stm32f1_spi.o
    0x08002df0   0x08002df0   0x0000009a   Code   RO           60    i.remove_chain      ff.o
    0x08002e8a   0x08002e8a   0x00000002   PAD
    0x08002e8c   0x08002e8c   0x0000002c   Code   RO          434    i.select            mmc_stm32f1_spi.o
    0x08002eb8   0x08002eb8   0x00000096   Code   RO          435    i.send_cmd          mmc_stm32f1_spi.o
    0x08002f4e   0x08002f4e   0x00000024   Code   RO           61    i.st_clust          ff.o
    0x08002f72   0x08002f72   0x00000018   Code   RO           62    i.st_dword          ff.o
    0x08002f8a   0x08002f8a   0x0000000c   Code   RO           63    i.st_word           ff.o
    0x08002f96   0x08002f96   0x00000020   Code   RO           64    i.sum_sfn           ff.o
    0x08002fb6   0x08002fb6   0x00000002   PAD
    0x08002fb8   0x08002fb8   0x00000090   Code   RO           65    i.sync_fs           ff.o
    0x08003048   0x08003048   0x0000004a   Code   RO           66    i.sync_window       ff.o
    0x08003092   0x08003092   0x0000004c   Code   RO           67    i.tchar2uni         ff.o
    0x080030de   0x080030de   0x00000002   PAD
    0x080030e0   0x080030e0   0x00000040   Code   RO          586    i.uart1_getc        uart_stm32f1.o
    0x08003120   0x08003120   0x00000108   Code   RO          587    i.uart1_init        uart_stm32f1.o
    0x08003228   0x08003228   0x00000050   Code   RO          588    i.uart1_putc        uart_stm32f1.o
    0x08003278   0x08003278   0x0000003c   Code   RO           68    i.validate          ff.o
    0x080032b4   0x080032b4   0x00000044   Code   RO          436    i.wait_ready        mmc_stm32f1_spi.o
    0x080032f8   0x080032f8   0x00000020   Code   RO          437    i.xchg_spi          mmc_stm32f1_spi.o
    0x08003318   0x08003318   0x0000004c   Code   RO          438    i.xmit_datablock    mmc_stm32f1_spi.o
    0x08003364   0x08003364   0x00000080   Code   RO          439    i.xmit_spi_multi    mmc_stm32f1_spi.o
    0x080033e4   0x080033e4   0x0000001a   Code   RO          641    i.xprintf           xprintf.o
    0x080033fe   0x080033fe   0x00000002   PAD
    0x08003400   0x08003400   0x00000040   Code   RO          642    i.xputc             xprintf.o
    0x08003440   0x08003440   0x00000016   Code   RO          643    i.xputs             xprintf.o
    0x08003456   0x08003456   0x00000212   Code   RO          645    i.xvprintf          xprintf.o
    0x08003668   0x08003668   0x000000cc   Data   RO           70    .constdata          ff.o
    0x08003734   0x08003734   0x000003ae   Data   RO          398    .constdata          ffunicode.o
    0x08003ae2   0x08003ae2   0x00000002   PAD
    0x08003ae4   0x08003ae4   0x00000021   Data   RO          725    .conststring        main.o
    0x08003b05   0x08003b05   0x00000003   PAD
    0x08003b08   0x08003b08   0x00000020   Data   RO          845    Region$$Table       anon$$obj.o


    Execution Region RW_IRAM1 (Exec base: 0x20000000, Load base: 0x08003b28, Size: 0x000022f0, Max: 0x00030000, ABSOLUTE)

    Exec Addr    Load Addr    Size         Type   Attr      Idx    E Section Name        Object

    0x20000000   0x08003b28   0x00000003   Data   RW           71    .data               ff.o
    0x20000003   0x08003b2b   0x00000001   PAD
    0x20000004   0x08003b2c   0x0000000d   Data   RW          440    .data               mmc_stm32f1_spi.o
    0x20000011   0x08003b39   0x00000003   PAD
    0x20000014   0x08003b3c   0x0000000c   Data   RW          646    .data               xprintf.o
    0x20000020   0x08003b48   0x00000024   Data   RW          726    .data               main.o
    0x20000044        -       0x00000112   Zero   RW           69    .bss                ff.o
    0x20000156        -       0x0000010c   Zero   RW          590    .bss                uart_stm32f1.o
    0x20000262   0x08003b6c   0x00000002   PAD
    0x20000264        -       0x00001c88   Zero   RW          723    .bss                main.o
    0x20001eec   0x08003b6c   0x00000004   PAD
    0x20001ef0        -       0x00000400   Zero   RW          774    STACK               startup_stm32f429xx.o


==============================================================================

Image component sizes


      Code (inc. data)   RO Data    RW Data    ZI Data      Debug   Object Name

      8546        184        204          3        274      60266   ff.o
       284         32        942          0          0       2652   ffunicode.o
       786        294         33         36       7304       3148   main.o
      2410        122          0         13          0      13566   mmc_stm32f1_spi.o
         0          0          0          0          0        376   rtc_stm32f1.o
        36          8        428          0       1024        852   startup_stm32f429xx.o
       100         18          0          0          0        521   system_stm32f4xx.o
       552         42          0          0        268       3135   uart_stm32f1.o
       642          8          0         12          0       4115   xprintf.o

    ----------------------------------------------------------------------
     13376        708       1644         68       8876      88631   Object Totals
         0          0         32          0          0          0   (incl. Generated)
        20          0          5          4          6          0   (incl. Padding)

    ----------------------------------------------------------------------

      Code (inc. data)   RO Data    RW Data    ZI Data      Debug   Library Member Name

         0          0          0          0          0          0   entry.o
         0          0          0          0          0          0   entry10a.o
         0          0          0          0          0          0   entry11a.o
         8          4          0          0          0          0   entry2.o
         4          0          0          0          0          0   entry5.o
         0          0          0          0          0          0   entry7b.o
         0          0          0          0          0          0   entry8b.o
         8          4          0          0          0          0   entry9a.o
        30          0          0          0          0          0   handlers.o
        36          8          0          0          0         68   init.o
        36          0          0          0          0         68   memcpya.o

    ----------------------------------------------------------------------
       124         16          0          0          0        136   Library Totals
         2          0          0          0          0          0   (incl. Padding)

    ----------------------------------------------------------------------

      Code (inc. data)   RO Data    RW Data    ZI Data      Debug   Library Name

       122         16          0          0          0        136   mc_w.l

    ----------------------------------------------------------------------
       124         16          0          0          0        136   Library Totals

    ----------------------------------------------------------------------

==============================================================================


      Code (inc. data)   RO Data    RW Data    ZI Data      Debug   

     13500        724       1644         68       8876      81771   Grand Totals
     13500        724       1644         68       8876      81771   ELF Image Totals
     13500        724       1644         68          0          0   ROM Totals

==============================================================================

    Total RO  Size (Code + RO Data)                15144 (  14.79kB)
    Total RW  Size (RW Data + ZI Data)              8944 (   8.73kB)
    Total ROM Size (Code + RO Data + RW Data)      15212 (  14.86kB)

==============================================================================

